:100000000C945D000C9485000C9485000C94850084
:100010000C9485000C9485000C9485000C9485004C
:100020000C9485000C9485000C9485000C9432018E
:100030000C9485000C9485000C9485000C9485002C
:100040000C9434040C9485000C9485000C94850069
:100050000C9485000C9485000C9485000C9485000C
:100060000C9485000C94850000000007000201003C
:100070000003040600000000000000000102040864
:100080001020408001020408102001020408102002
:10009000040404040404040402020202020203032E
:1000A0000303030300000000250028002B000000CC
:1000B0000000240027002A00170111241FBECFEFE3
:1000C000D8E0DEBFCDBF11E0A0E0B1E0E2E8FDE0A6
:1000D00002C005900D92AA30B107D9F721E0AAE03D
:1000E000B1E001C01D92A734B207E1F710E0CAEBFE
:1000F000D0E004C02297FE010E94AC06C83BD107A5
:10010000C9F70E940C050C94BF060C94000063E034
:1001100070E08CE091E00E9488026BE070E08FE07C
:1001200091E00E94880261EE70E08091120190914E
:1001300013010E94340380911201909113010C94D9
:1001400038030F931F93CF93DF9300D01F92CDB747
:10015000DEB769837A838B8304E010E061E770E0A7
:10016000CE0101960E94C10201501109011511052D
:10017000A9F70F900F900F90DF91CF911F910F91E2
:1001800008950F931F93CF93DF9300D01F92CDB7A5
:10019000DEB769837A838B8304E010E063E470E068
:1001A000CE0101960E94C1020150110901151105ED
:1001B000A9F70F900F900F90DF91CF911F910F91A2
:1001C000089581E090E020910A0130910B01232BEA
:1001D00011F080E090E090930B0180930A01FC0104
:1001E000EE0FFF1FE80FF91FE45FFE4F6081718182
:1001F00082810E94A10081E090E020910A0130916B
:100200000B01232B11F080E090E0FC01EE0FFF1FAB
:10021000E80FF91FE45FFE4F6081718182810C94C9
:10022000C10080911201909113010C948D03CF9322
:10023000DF9380E190E00E941905EC0142E350E079
:1002400060E070E00E942603D0931301C093120176
:100250008CE091E00E94EE018FE091E0DF91CF9180
:100260000C94EE011F920F920FB60F9211242F9350
:100270003F934F935F936F937F938F939F93AF932E
:10028000BF93EF93FF938091150187FF05C01092F4
:100290008500109284001AC020911501332727FD94
:1002A00030958091140190E0281739077CF48091F3
:1002B0001501992787FD9095FC01EE0FFF1FE80FB0
:1002C000F91FEA5EFE4F808186FD15C08091150101
:1002D0008F5F8093150120911501332727FD3095FD
:1002E0008091140190E028173907BCF48091150122
:1002F0008C305CF112C080911501992787FD909593
:10030000FC01EE0FFF1FE80FF91FEA5EFE4F808130
:1003100060E08F730E94FE03D9CF8091840090919A
:100320008500049680349C4918F480E49CE905C05B
:100330008091840090918500049690938900809329
:1003400088008FEF8093150138C0809184009091D0
:10035000850020911501332727FD3095F901EE0F17
:10036000FF1FE20FF31FEA5EFE4F21813281820FF1
:10037000931F90938900809388008091150199279D
:1003800087FD9095FC01EE0FFF1FE80FF91FEA5E55
:10039000FE4F808186FF11C080911501992787FD4E
:1003A0009095FC01EE0FFF1FE80FF91FEA5EFE4F6C
:1003B000808161E08F730E94FE03FF91EF91BF91F6
:1003C000AF919F918F917F916F915F914F913F91ED
:1003D0002F910F900FBE0F901F9018952091140130
:1003E0002C30A0F431E0320F30931401FC01208353
:1003F000822F90E0FC01EE0FFF1FE80FF91FEA5E6D
:10040000FE4F88EB9BE09283818308952FEFFC01E0
:1004100020830895DF92EF92FF920F931F93CF9363
:10042000DF93EC01D62E7A01890188818C3008F0A7
:1004300066C061E08D2D0E94C5038881A82FB0E0C1
:10044000FD01EE0FFF1FEA0FFB1FEA5EFE4F2D2D91
:100450002F739081907C922B908360E272E06E19F2
:100460007F0977FF02C06D5F7F4F75956795759522
:100470006795698340E659E0401B510B57FF02C066
:100480004D5F5F4F55954795559547954A836CE06D
:100490000E9452069CE0899FB001112420E030E0C8
:1004A000A901460F571FFA01EE0FFF1FE40FF51FBA
:1004B000EA5EFE4F908196FD16C02F5F3F4F2C30B5
:1004C000310571F781110FC01092800082E0809396
:1004D00081001092850010928400B19A80916F0083
:1004E000826080936F00888190E0FC01EE0FFF1F17
:1004F000E80FF91FEA5EFE4F808180648083888167
:10050000DF91CF911F910F91FF90EF90DF900895B1
:1005100020E639E040E252E00C940A02FC018081BE
:100520008C3070F5918128E830E0291B310997FD66
:100530003395220F331F220F331F621773077CF08E
:10054000928128E532E0291B310997FD3395220F6E
:10055000331F220F331F621773070CF49B014FB731
:10056000F89490E0FC01EE0FFF1FE80FF91FEA5E20
:10057000FE4F22503109220F331F328321834FBF98
:1005800008954F925F926F927F92AF92BF92CF92F7
:10059000DF92EF92FF920F931F93CF93DF93EC01C3
:1005A000603282E078070CF040C077FD06C0653B02
:1005B00071052CF064EB70E002C060E070E08981AE
:1005C00028E830E0281B310987FD3395220F331FBF
:1005D000220F331F5901CC24B7FCC094DC2C882790
:1005E00077FD8095982F2A8148E552E0421B5109FA
:1005F00027FD5395440F551F440F551F2A016624AC
:1006000057FC6094762C7F926F925F924F9214EB1E
:10061000E12EF12C00E010E020E030E0A9010E9482
:10062000C5040F900F900F900F90CE01DF91CF91E6
:100630001F910F91FF90EF90DF90CF90BF90AF9000
:100640007F906F905F904F900C948E02FC014083DE
:1006500051836283738314821582178216821086F7
:100660001186128613860895FC01778366830895A8
:10067000CF93DF93EC010E947E04688779878A8795
:100680009B8781E08C83DF91CF910895CF92DF9299
:10069000EF92FF921F93CF93DF93EC011C81111116
:1006A00002C010E031C0C884D984EA84FB840E946F
:1006B0007E04660F771F881F991F6C157D058E05B8
:1006C0009F0520F4188619861A861B860E947E04D0
:1006D000C884D984EA84FB846C197D098E099F093A
:1006E000C880D980EA80FB806C157D058E059F054A
:1006F000C0F20E947E04688779878A879B878D81F4
:10070000882311F01C82182F812FDF91CF911F9128
:10071000FF90EF90DF90CF900895CF93DF93EC019F
:100720000E944603882329F0EE81FF81DF91CF915B
:100730000994DF91CF910895833081F028F48130BE
:1007400099F08230A1F008958630A9F08730B9F091
:100750008430D1F4809180008F7D03C0809180002F
:100760008F7780938000089584B58F7702C084B519
:100770008F7D84BD08958091B0008F7703C08091F4
:10078000B0008F7D8093B0000895CF93DF9390E009
:10079000FC01E458FF4F2491FC01E057FF4F849186
:1007A000882349F190E0880F991FFC01E255FF4F23
:1007B000A591B4918C559F4FFC01C591D4919FB7E1
:1007C000611108C0F8948C91209582238C938881C4
:1007D00082230AC0623051F4F8948C91322F309504
:1007E00083238C938881822B888304C0F8948C9116
:1007F000822B8C939FBFDF91CF9108950F931F930E
:10080000CF93DF931F92CDB7DEB7282F30E0F901E9
:10081000E859FF4F8491F901E458FF4F1491F90111
:10082000E057FF4F04910023C9F0882321F069832A
:100830000E949C036981E02FF0E0EE0FFF1FEC5552
:10084000FF4FA591B4919FB7F8948C91611103C0AB
:100850001095812301C0812B8C939FBF0F90DF9156
:10086000CF911F910F9108951F920F920FB60F9283
:1008700011242F933F938F939F93AF93BF938091B6
:100880003B0190913C01A0913D01B0913E0130911E
:100890003A0123E0230F2D3720F40196A11DB11D4D
:1008A00005C026E8230F0296A11DB11D20933A0131
:1008B00080933B0190933C01A0933D01B0933E0196
:1008C00080913F0190914001A0914101B09142017E
:1008D0000196A11DB11D80933F0190934001A0930B
:1008E0004101B0934201BF91AF919F918F913F9190
:1008F0002F910F900FBE0F901F9018952FB7F8945F
:1009000060913B0170913C0180913D0190913E01CD
:100910002FBF0895789484B5826084BD84B58160CA
:1009200084BD85B5826085BD85B5816085BDEEE6F7
:10093000F0E0808181608083E1E8F0E010828081D6
:1009400082608083808181608083E0E8F0E0808144
:1009500081608083E1EBF0E0808184608083E0EB64
:10096000F0E0808181608083EAE7F0E0808184604C
:1009700080838081826080838081816080838081A8
:10098000806880831092C10008954F925F926F92A9
:100990007F92AF92BF92CF92DF92EF92FF920F932E
:1009A0001F93CF93DF93CDB7DEB729013A01621BC6
:1009B000730B840B950B29893A894B895C892A1919
:1009C0003B094C095D09298B3A8B4B8B5C8B9B0156
:1009D000AC0169897A898B899C890E944206E41856
:1009E000F50806091709A80197010E945E062A0D5D
:1009F0003B1D4C1D5D1DCA01B901DF91CF911F91B7
:100A00000F91FF90EF90DF90CF90BF90AF907F90CD
:100A10006F905F904F9008950E948A040E94870013
:100A2000C0E0D0E00E9411012097E1F30E94000095
:100A3000F9CF0C941B05CF93DF938230910510F40E
:100A400082E090E0E0914501F091460120E030E045
:100A5000A0E0B0E0309739F1408151814817590743
:100A6000B8F04817590771F482819381109729F0E3
:100A700013969C938E9312972CC09093460180936B
:100A8000450127C02115310531F04217530718F0F1
:100A9000A901DB0101C0EF019A01BD01DF01028064
:100AA000F381E02DD7CF21153105F9F0281B390B43
:100AB0002430310580F48A819B816115710521F014
:100AC000FB019383828304C0909346018093450188
:100AD000FE01329644C0FE01E20FF31F8193919311
:100AE00022503109398328833AC020914301309143
:100AF0004401232B41F420910601309107013093EA
:100B000044012093430120910401309105012115F6
:100B1000310541F42DB73EB74091080150910901CC
:100B2000241B350BE0914301F0914401E217F307D8
:100B3000A0F42E1B3F0B2817390778F0AC014E5F4D
:100B40005F4F2417350748F04E0F5F1F5093440145
:100B5000409343018193919302C0E0E0F0E0CF0124
:100B6000DF91CF910895CF93DF93009709F487C069
:100B7000FC01329713821282C0914501D091460147
:100B8000209781F420813181280F391F8091430102
:100B9000909144018217930779F5F0934401E09313
:100BA00043016DC0DE0120E030E0AE17BF0750F416
:100BB00012964D915C9113979D014115510509F1D4
:100BC000DA01F3CFB383A28340815181840F951F53
:100BD0008A179B0771F48D919C911197840F951F33
:100BE00002969183808312968D919C9113979383A3
:100BF00082832115310529F4F0934601E0934501E4
:100C00003EC0D9011396FC93EE9312974D915D91DE
:100C1000A40FB51FEA17FB0779F480819181840F37
:100C2000951F0296D90111969C938E938281938190
:100C300013969C938E931297E0E0F0E08A819B815B
:100C4000009719F0FE01EC01F9CFCE010296288140
:100C50003981820F931F209143013091440128175D
:100C6000390769F4309729F4109246011092450132
:100C700002C013821282D0934401C0934301DF91DA
:100C8000CF910895DB018F939F930E947D06BF91C2
:100C9000AF91A29F800D911DA39F900DB29F900DCB
:100CA00011240895991B79E004C0991F961708F044
:100CB000961B881F7A95C9F780950895052E97FB96
:100CC0001EF400940E94750657FD07D00E94880606
:100CD00007FC03D04EF40C94750650954095309562
:100CE00021953F4F4F4F5F4F089590958095709598
:100CF00061957F4F8F4F9F4F08950E94B006A59F2B
:100D0000900DB49F900DA49F800D911D1124089506
:100D1000A1E21A2EAA1BBB1BFD010DC0AA1FBB1FFF
:100D2000EE1FFF1FA217B307E407F50720F0A21B71
:100D3000B30BE40BF50B661F771F881F991F1A94DE
:100D400069F760957095809590959B01AC01BD0108
:100D5000CF010895EE0FFF1F0590F491E02D099447
:100D6000A29FB001B39FC001A39F700D811D1124EC
:100D7000911DB29F700D811D1124911D0895F8944D
:020D8000FFCFA3
:0A0D8200010000000000470180009E
:00000001FF
